{
  "contractName": "Social",
  "abi": [
    {
      "constant": true,
      "inputs": [],
      "name": "postCount",
      "outputs": [
        {
          "name": "",
          "type": "uint256"
        }
      ],
      "payable": false,
      "stateMutability": "view",
      "type": "function"
    },
    {
      "constant": true,
      "inputs": [
        {
          "name": "",
          "type": "uint256"
        }
      ],
      "name": "postList",
      "outputs": [
        {
          "name": "id",
          "type": "uint256"
        },
        {
          "name": "content",
          "type": "string"
        },
        {
          "name": "owner",
          "type": "address"
        },
        {
          "name": "tipAmount",
          "type": "uint256"
        }
      ],
      "payable": false,
      "stateMutability": "view",
      "type": "function"
    },
    {
      "anonymous": false,
      "inputs": [
        {
          "indexed": false,
          "name": "id",
          "type": "uint256"
        },
        {
          "indexed": false,
          "name": "content",
          "type": "string"
        },
        {
          "indexed": false,
          "name": "owner",
          "type": "address"
        }
      ],
      "name": "PostAdded",
      "type": "event"
    },
    {
      "anonymous": false,
      "inputs": [
        {
          "indexed": false,
          "name": "id",
          "type": "uint256"
        },
        {
          "indexed": false,
          "name": "tipAmount",
          "type": "uint256"
        }
      ],
      "name": "PostTipped",
      "type": "event"
    },
    {
      "constant": false,
      "inputs": [
        {
          "name": "_content",
          "type": "string"
        }
      ],
      "name": "addPost",
      "outputs": [],
      "payable": false,
      "stateMutability": "nonpayable",
      "type": "function"
    },
    {
      "constant": false,
      "inputs": [
        {
          "name": "_id",
          "type": "uint256"
        }
      ],
      "name": "tipPost",
      "outputs": [],
      "payable": true,
      "stateMutability": "payable",
      "type": "function"
    }
  ],
  "bytecode": "0x60806040526000805534801561001457600080fd5b5061087b806100246000396000f3fe60806040526004361061003f5760003560e01c806317906c2e146100445780633a6209c31461006f57806374d3c1f814610164578063a632281914610192575b600080fd5b34801561005057600080fd5b5061005961025a565b6040518082815260200191505060405180910390f35b34801561007b57600080fd5b506100a86004803603602081101561009257600080fd5b8101908080359060200190929190505050610260565b60405180858152602001806020018473ffffffffffffffffffffffffffffffffffffffff1673ffffffffffffffffffffffffffffffffffffffff168152602001838152602001828103825285818151815260200191508051906020019080838360005b8381101561012657808201518184015260208101905061010b565b50505050905090810190601f1680156101535780820380516001836020036101000a031916815260200191505b509550505050505060405180910390f35b6101906004803603602081101561017a57600080fd5b8101908080359060200190929190505050610348565b005b34801561019e57600080fd5b50610258600480360360208110156101b557600080fd5b81019080803590602001906401000000008111156101d257600080fd5b8201836020820111156101e457600080fd5b8035906020019184600183028401116401000000008311171561020657600080fd5b91908080601f016020809104026020016040519081016040528093929190818152602001838380828437600081840152601f19601f8201169050808301925050505050505091929192905050506105ba565b005b60005481565b6001602052806000526040600020600091509050806000015490806001018054600181600116156101000203166002900480601f0160208091040260200160405190810160405280929190818152602001828054600181600116156101000203166002900480156103125780601f106102e757610100808354040283529160200191610312565b820191906000526020600020905b8154815290600101906020018083116102f557829003601f168201915b5050505050908060020160009054906101000a900473ffffffffffffffffffffffffffffffffffffffff16908060030154905084565b6000341161035557600080fd5b61035d61076c565b6001600083815260200190815260200160002060405180608001604052908160008201548152602001600182018054600181600116156101000203166002900480601f01602080910402602001604051908101604052809291908181526020018280546001816001161561010002031660029004801561041e5780601f106103f35761010080835404028352916020019161041e565b820191906000526020600020905b81548152906001019060200180831161040157829003601f168201915b505050505081526020016002820160009054906101000a900473ffffffffffffffffffffffffffffffffffffffff1673ffffffffffffffffffffffffffffffffffffffff1673ffffffffffffffffffffffffffffffffffffffff1681526020016003820154815250509050806040015173ffffffffffffffffffffffffffffffffffffffff166108fc349081150290604051600060405180830381858888f193505050501580156104d3573d6000803e3d6000fd5b5034816060015101816060018181525050806001600084815260200190815260200160002060008201518160000155602082015181600101908051906020019061051e9291906107aa565b5060408201518160020160006101000a81548173ffffffffffffffffffffffffffffffffffffffff021916908373ffffffffffffffffffffffffffffffffffffffff160217905550606082015181600301559050507f76c21e41289d38160d65fd314f5f6a951fe656832318860c1608bcbc43f040eb828260600151604051808381526020018281526020019250505060405180910390a15050565b600160005401600081905550604051806080016040528060005481526020018281526020013373ffffffffffffffffffffffffffffffffffffffff1681526020016000815250600160008054815260200190815260200160002060008201518160000155602082015181600101908051906020019061063a9291906107aa565b5060408201518160020160006101000a81548173ffffffffffffffffffffffffffffffffffffffff021916908373ffffffffffffffffffffffffffffffffffffffff160217905550606082015181600301559050507f04252f9458f5e6a7ca08253452fa6b47ae7e4e41f3638def7f399e2e3dd64c79600054823360405180848152602001806020018373ffffffffffffffffffffffffffffffffffffffff1673ffffffffffffffffffffffffffffffffffffffff168152602001828103825284818151815260200191508051906020019080838360005b8381101561072d578082015181840152602081019050610712565b50505050905090810190601f16801561075a5780820380516001836020036101000a031916815260200191505b5094505050505060405180910390a150565b60405180608001604052806000815260200160608152602001600073ffffffffffffffffffffffffffffffffffffffff168152602001600081525090565b828054600181600116156101000203166002900490600052602060002090601f016020900481019282601f106107eb57805160ff1916838001178555610819565b82800160010185558215610819579182015b828111156108185782518255916020019190600101906107fd565b5b509050610826919061082a565b5090565b61084c91905b80821115610848576000816000905550600101610830565b5090565b9056fea165627a7a7230582076da7e499d2cb8a3dd757190a0780bbb77df87a420a15f1a1af103c18c10280f0029",
  "source": "pragma solidity >=0.4.25 <0.7.0;\n\ncontract Social {\n    struct Post {\n        uint256 id;\n        string content;\n        address payable owner;\n        uint256 tipAmount;\n    }\n\n    uint256 public postCount = 0;\n    mapping(uint256 => Post) public postList;\n\n    event PostAdded(uint256 id, string content, address payable owner);\n\n    event PostTipped(uint256 id, uint256 tipAmount);\n\n    function addPost(string memory _content) public {\n        postCount = postCount + 1;\n        postList[postCount] = Post(postCount, _content, msg.sender, 0);\n\n        emit PostAdded(postCount, _content, msg.sender);\n    }\n\n    function tipPost(uint256 _id) public payable {\n        require(msg.value > 0);\n\n        Post memory post = postList[_id];\n        post.owner.transfer(msg.value);\n        post.tipAmount = post.tipAmount + msg.value;\n        postList[_id] = post;\n\n        emit PostTipped(_id, post.tipAmount);\n    }\n}\n",
  "sourcePath": "/Users/razvan/Documents/Youtube/Blockchain/6-Social-App/truffle_app/contracts/Social.sol",
  "compiler": {
    "name": "solc",
    "version": "0.5.8+commit.23d335f2.Emscripten.clang"
  },
  "schemaVersion": "3.0.15",
  "updatedAt": "2020-03-15T11:25:23.605Z",
  "devdoc": {
    "methods": {}
  },
  "userdoc": {
    "methods": {}
  }
}